{
  "_format": "hh-sol-artifact-1",
  "contractName": "PresaleRelease",
  "sourceName": "contracts/IDO/PresaleRelease.sol",
  "abi": [
    {
      "inputs": [
        {
          "internalType": "address",
          "name": "_ths",
          "type": "address"
        },
        {
          "internalType": "address",
          "name": "_preThs",
          "type": "address"
        },
        {
          "internalType": "address",
          "name": "_presaleContract",
          "type": "address"
        },
        {
          "internalType": "uint256",
          "name": "_part1Start",
          "type": "uint256"
        },
        {
          "internalType": "uint256",
          "name": "_part1Rate",
          "type": "uint256"
        },
        {
          "internalType": "uint256",
          "name": "_part2Start",
          "type": "uint256"
        },
        {
          "internalType": "uint256",
          "name": "_part2Terms",
          "type": "uint256"
        }
      ],
      "stateMutability": "nonpayable",
      "type": "constructor"
    },
    {
      "anonymous": false,
      "inputs": [
        {
          "indexed": true,
          "internalType": "address",
          "name": "sender",
          "type": "address"
        },
        {
          "indexed": true,
          "internalType": "uint256",
          "name": "amount",
          "type": "uint256"
        }
      ],
      "name": "ClaimPart1",
      "type": "event"
    },
    {
      "anonymous": false,
      "inputs": [
        {
          "indexed": true,
          "internalType": "address",
          "name": "sender",
          "type": "address"
        },
        {
          "indexed": true,
          "internalType": "uint256",
          "name": "amount",
          "type": "uint256"
        }
      ],
      "name": "ClaimPart2",
      "type": "event"
    },
    {
      "anonymous": false,
      "inputs": [
        {
          "indexed": true,
          "internalType": "address",
          "name": "previousOwner",
          "type": "address"
        },
        {
          "indexed": true,
          "internalType": "address",
          "name": "newOwner",
          "type": "address"
        }
      ],
      "name": "OwnershipTransferred",
      "type": "event"
    },
    {
      "anonymous": false,
      "inputs": [
        {
          "indexed": true,
          "internalType": "address",
          "name": "sender",
          "type": "address"
        },
        {
          "indexed": true,
          "internalType": "uint256",
          "name": "terms",
          "type": "uint256"
        }
      ],
      "name": "SetPart2Terms",
      "type": "event"
    },
    {
      "inputs": [],
      "name": "addrPreThs",
      "outputs": [
        {
          "internalType": "address",
          "name": "",
          "type": "address"
        }
      ],
      "stateMutability": "view",
      "type": "function"
    },
    {
      "inputs": [],
      "name": "addrPresale",
      "outputs": [
        {
          "internalType": "address",
          "name": "",
          "type": "address"
        }
      ],
      "stateMutability": "view",
      "type": "function"
    },
    {
      "inputs": [],
      "name": "addrThs",
      "outputs": [
        {
          "internalType": "address",
          "name": "",
          "type": "address"
        }
      ],
      "stateMutability": "view",
      "type": "function"
    },
    {
      "inputs": [],
      "name": "claimPart1",
      "outputs": [],
      "stateMutability": "nonpayable",
      "type": "function"
    },
    {
      "inputs": [],
      "name": "claimPart2",
      "outputs": [],
      "stateMutability": "nonpayable",
      "type": "function"
    },
    {
      "inputs": [],
      "name": "earnedTotal",
      "outputs": [
        {
          "internalType": "uint256",
          "name": "",
          "type": "uint256"
        }
      ],
      "stateMutability": "view",
      "type": "function"
    },
    {
      "inputs": [
        {
          "internalType": "address",
          "name": "_receiptor",
          "type": "address"
        }
      ],
      "name": "getpendingPart1",
      "outputs": [
        {
          "internalType": "uint256",
          "name": "pending_",
          "type": "uint256"
        }
      ],
      "stateMutability": "view",
      "type": "function"
    },
    {
      "inputs": [
        {
          "internalType": "address",
          "name": "_receiptor",
          "type": "address"
        }
      ],
      "name": "getpendingPart2",
      "outputs": [
        {
          "internalType": "uint256",
          "name": "pending_",
          "type": "uint256"
        }
      ],
      "stateMutability": "view",
      "type": "function"
    },
    {
      "inputs": [],
      "name": "owner",
      "outputs": [
        {
          "internalType": "address",
          "name": "",
          "type": "address"
        }
      ],
      "stateMutability": "view",
      "type": "function"
    },
    {
      "inputs": [],
      "name": "part1Rate",
      "outputs": [
        {
          "internalType": "uint256",
          "name": "",
          "type": "uint256"
        }
      ],
      "stateMutability": "view",
      "type": "function"
    },
    {
      "inputs": [],
      "name": "part1Start",
      "outputs": [
        {
          "internalType": "uint256",
          "name": "",
          "type": "uint256"
        }
      ],
      "stateMutability": "view",
      "type": "function"
    },
    {
      "inputs": [],
      "name": "part2Start",
      "outputs": [
        {
          "internalType": "uint256",
          "name": "",
          "type": "uint256"
        }
      ],
      "stateMutability": "view",
      "type": "function"
    },
    {
      "inputs": [],
      "name": "part2TermBlocks",
      "outputs": [
        {
          "internalType": "uint256",
          "name": "",
          "type": "uint256"
        }
      ],
      "stateMutability": "view",
      "type": "function"
    },
    {
      "inputs": [],
      "name": "releaseDec",
      "outputs": [
        {
          "internalType": "uint256",
          "name": "",
          "type": "uint256"
        }
      ],
      "stateMutability": "view",
      "type": "function"
    },
    {
      "inputs": [
        {
          "internalType": "address",
          "name": "",
          "type": "address"
        }
      ],
      "name": "releaseInfoOf",
      "outputs": [
        {
          "internalType": "uint256",
          "name": "part2EarnedTotal",
          "type": "uint256"
        },
        {
          "internalType": "uint256",
          "name": "part2LastEarnBlock",
          "type": "uint256"
        },
        {
          "internalType": "uint256",
          "name": "part1EarnedBlock",
          "type": "uint256"
        },
        {
          "internalType": "uint256",
          "name": "part1EarnedAmount",
          "type": "uint256"
        }
      ],
      "stateMutability": "view",
      "type": "function"
    },
    {
      "inputs": [],
      "name": "renounceOwnership",
      "outputs": [],
      "stateMutability": "nonpayable",
      "type": "function"
    },
    {
      "inputs": [
        {
          "internalType": "uint256",
          "name": "_termBlocks",
          "type": "uint256"
        }
      ],
      "name": "setPart2Terms",
      "outputs": [],
      "stateMutability": "nonpayable",
      "type": "function"
    },
    {
      "inputs": [
        {
          "internalType": "address",
          "name": "newOwner",
          "type": "address"
        }
      ],
      "name": "transferOwnership",
      "outputs": [],
      "stateMutability": "nonpayable",
      "type": "function"
    },
    {
      "inputs": [
        {
          "internalType": "address",
          "name": "_token",
          "type": "address"
        },
        {
          "internalType": "address",
          "name": "_to",
          "type": "address"
        }
      ],
      "name": "withdrawToken",
      "outputs": [],
      "stateMutability": "nonpayable",
      "type": "function"
    }
  ],
  "bytecode": "0x60806040523480156200001157600080fd5b506040516200223838038062002238833981810160405281019062000037919062000258565b620000576200004b6200015e60201b60201c565b6200016660201b60201c565b6001600060146101000a81548160ff02191690831515021790555086600160006101000a81548173ffffffffffffffffffffffffffffffffffffffff021916908373ffffffffffffffffffffffffffffffffffffffff16021790555085600260006101000a81548173ffffffffffffffffffffffffffffffffffffffff021916908373ffffffffffffffffffffffffffffffffffffffff16021790555084600360006101000a81548173ffffffffffffffffffffffffffffffffffffffff021916908373ffffffffffffffffffffffffffffffffffffffff160217905550836005819055508260068190555081600781905550806008819055505050505050505062000377565b600033905090565b60008060009054906101000a900473ffffffffffffffffffffffffffffffffffffffff169050816000806101000a81548173ffffffffffffffffffffffffffffffffffffffff021916908373ffffffffffffffffffffffffffffffffffffffff1602179055508173ffffffffffffffffffffffffffffffffffffffff168173ffffffffffffffffffffffffffffffffffffffff167f8be0079c531659141344cd1fd0a4f28419497f9722a3daafe3b4186f6b6457e060405160405180910390a35050565b6000815190506200023b8162000343565b92915050565b60008151905062000252816200035d565b92915050565b600080600080600080600060e0888a0312156200027457600080fd5b6000620002848a828b016200022a565b9750506020620002978a828b016200022a565b9650506040620002aa8a828b016200022a565b9550506060620002bd8a828b0162000241565b9450506080620002d08a828b0162000241565b93505060a0620002e38a828b0162000241565b92505060c0620002f68a828b0162000241565b91505092959891949750929550565b6000620003128262000319565b9050919050565b600073ffffffffffffffffffffffffffffffffffffffff82169050919050565b6000819050919050565b6200034e8162000305565b81146200035a57600080fd5b50565b620003688162000339565b81146200037457600080fd5b50565b611eb180620003876000396000f3fe608060405234801561001057600080fd5b50600436106101215760003560e01c80638da5cb5b116100ad578063bd01f59211610071578063bd01f592146102d9578063c1986b61146102f7578063e9f2cd3b14610327578063efd60e3c14610331578063f2fde38b1461033b57610121565b80638da5cb5b14610230578063951155ab1461024e578063a4daa93d1461026c578063aed4680c14610288578063b0448419146102a657610121565b8063295a4e44116100f4578063295a4e44146101b057806339a1d80f146101ce5780633aeac4e1146101ec5780634e6c9d1f14610208578063715018a61461022657610121565b806303c6a48a1461012657806306a3d54a146101445780630a8c490814610162578063174c1e8214610180575b600080fd5b61012e610357565b60405161013b91906118d5565b60405180910390f35b61014c61037d565b6040516101599190611a30565b60405180910390f35b61016a610383565b60405161017791906118d5565b60405180910390f35b61019a6004803603810190610195919061169a565b6103a9565b6040516101a79190611a30565b60405180910390f35b6101b861062d565b6040516101c59190611a30565b60405180910390f35b6101d6610632565b6040516101e391906118d5565b60405180910390f35b610206600480360381019061020191906116c3565b610658565b005b610210610835565b60405161021d9190611a30565b60405180910390f35b61022e61083b565b005b6102386108c3565b60405161024591906118d5565b60405180910390f35b6102566108ec565b6040516102639190611a30565b60405180910390f35b61028660048036038101906102819190611728565b6108f2565b005b6102906109bc565b60405161029d9190611a30565b60405180910390f35b6102c060048036038101906102bb919061169a565b6109c2565b6040516102d09493929190611a4b565b60405180910390f35b6102e16109f2565b6040516102ee9190611a30565b60405180910390f35b610311600480360381019061030c919061169a565b6109f8565b60405161031e9190611a30565b60405180910390f35b61032f610b41565b005b610339610dc1565b005b6103556004803603810190610350919061169a565b611095565b005b600360009054906101000a900473ffffffffffffffffffffffffffffffffffffffff1681565b60085481565b600160009054906101000a900473ffffffffffffffffffffffffffffffffffffffff1681565b600080600360009054906101000a900473ffffffffffffffffffffffffffffffffffffffff1673ffffffffffffffffffffffffffffffffffffffff16639d3fc416846040518263ffffffff1660e01b815260040161040791906118d5565b60206040518083038186803b15801561041f57600080fd5b505afa158015610433573d6000803e3d6000fd5b505050506040513d601f19601f820116820180604052508101906104579190611751565b9050600081141561046c576000915050610628565b600061049660646104888460065461118d90919063ffffffff16565b6111a390919063ffffffff16565b905060006104ad82846111b990919063ffffffff16565b905060006104dd6008546104cf64e8d4a510008561118d90919063ffffffff16565b6111a390919063ffffffff16565b9050600080600960008973ffffffffffffffffffffffffffffffffffffffff1673ffffffffffffffffffffffffffffffffffffffff16815260200190815260200160002060405180608001604052908160008201548152602001600182015481526020016002820154815260200160038201548152505090506000816020015111156105815761057a8160200151436111b990919063ffffffff16565b9150610599565b610596600754436111b990919063ffffffff16565b91505b6105c364e8d4a510006105b5858561118d90919063ffffffff16565b6111a390919063ffffffff16565b96506105ee876105e08360000151886111cf90919063ffffffff16565b6111cf90919063ffffffff16565b8610156106215761061e61060f8260000151876111cf90919063ffffffff16565b876111b990919063ffffffff16565b96505b5050505050505b919050565b606481565b600260009054906101000a900473ffffffffffffffffffffffffffffffffffffffff1681565b6106606111e5565b73ffffffffffffffffffffffffffffffffffffffff1661067e6108c3565b73ffffffffffffffffffffffffffffffffffffffff16146106d4576040517f08c379a00000000000000000000000000000000000000000000000000000000081526004016106cb906119b0565b60405180910390fd5b600060149054906101000a900460ff16610723576040517f08c379a000000000000000000000000000000000000000000000000000000000815260040161071a90611a10565b60405180910390fd5b60008060146101000a81548160ff0219169083151502179055508173ffffffffffffffffffffffffffffffffffffffff16600073ffffffffffffffffffffffffffffffffffffffff1614156107815761077c81476111ed565b610816565b6108158230838573ffffffffffffffffffffffffffffffffffffffff166370a08231306040518263ffffffff1660e01b81526004016107c091906118d5565b60206040518083038186803b1580156107d857600080fd5b505afa1580156107ec573d6000803e3d6000fd5b505050506040513d601f19601f820116820180604052508101906108109190611751565b611313565b5b6001600060146101000a81548160ff0219169083151502179055505050565b60075481565b6108436111e5565b73ffffffffffffffffffffffffffffffffffffffff166108616108c3565b73ffffffffffffffffffffffffffffffffffffffff16146108b7576040517f08c379a00000000000000000000000000000000000000000000000000000000081526004016108ae906119b0565b60405180910390fd5b6108c1600061144c565b565b60008060009054906101000a900473ffffffffffffffffffffffffffffffffffffffff16905090565b60065481565b6108fa6111e5565b73ffffffffffffffffffffffffffffffffffffffff166109186108c3565b73ffffffffffffffffffffffffffffffffffffffff161461096e576040517f08c379a0000000000000000000000000000000000000000000000000000000008152600401610965906119b0565b60405180910390fd5b80600881905550803373ffffffffffffffffffffffffffffffffffffffff167f4b6eeca9b377f54bfc68b8507fb5b0f3ba86ff5bc8cd849017c8283ffcbbaded60405160405180910390a350565b60045481565b60096020528060005260406000206000915090508060000154908060010154908060020154908060030154905084565b60055481565b600080600360009054906101000a900473ffffffffffffffffffffffffffffffffffffffff1673ffffffffffffffffffffffffffffffffffffffff16639d3fc416846040518263ffffffff1660e01b8152600401610a5691906118d5565b60206040518083038186803b158015610a6e57600080fd5b505afa158015610a82573d6000803e3d6000fd5b505050506040513d601f19601f82011682018060405250810190610aa69190611751565b90506000811415610abb576000915050610b3c565b6000600960008573ffffffffffffffffffffffffffffffffffffffff1673ffffffffffffffffffffffffffffffffffffffff168152602001908152602001600020600301541115610b10576000915050610b3c565b610b386064610b2a8360065461118d90919063ffffffff16565b6111a390919063ffffffff16565b9150505b919050565b600060149054906101000a900460ff16610b90576040517f08c379a0000000000000000000000000000000000000000000000000000000008152600401610b8790611a10565b60405180910390fd5b60008060146101000a81548160ff0219169083151502179055506000610bb5336109f8565b905060008111610bfa576040517f08c379a0000000000000000000000000000000000000000000000000000000008152600401610bf190611990565b60405180910390fd5b610c0f816004546111cf90919063ffffffff16565b60048190555043600960003373ffffffffffffffffffffffffffffffffffffffff1673ffffffffffffffffffffffffffffffffffffffff1681526020019081526020016000206002018190555080600960003373ffffffffffffffffffffffffffffffffffffffff1673ffffffffffffffffffffffffffffffffffffffff16815260200190815260200160002060030181905550600260009054906101000a900473ffffffffffffffffffffffffffffffffffffffff1673ffffffffffffffffffffffffffffffffffffffff166379cc679033836040518363ffffffff1660e01b8152600401610d00929190611927565b600060405180830381600087803b158015610d1a57600080fd5b505af1158015610d2e573d6000803e3d6000fd5b50505050610d5f600160009054906101000a900473ffffffffffffffffffffffffffffffffffffffff163383611510565b803373ffffffffffffffffffffffffffffffffffffffff167f0206e6b96e63b710c9f662e79ed7b6a10884bc99e444434706a466b4632f836e60405160405180910390a3506001600060146101000a81548160ff021916908315150217905550565b600060149054906101000a900460ff16610e10576040517f08c379a0000000000000000000000000000000000000000000000000000000008152600401610e0790611a10565b60405180910390fd5b60008060146101000a81548160ff0219169083151502179055506000610e35336103a9565b905060008111610e7a576040517f08c379a0000000000000000000000000000000000000000000000000000000008152600401610e7190611990565b60405180910390fd5b610e8f816004546111cf90919063ffffffff16565b60048190555043600960003373ffffffffffffffffffffffffffffffffffffffff1673ffffffffffffffffffffffffffffffffffffffff16815260200190815260200160002060010181905550610f31600960003373ffffffffffffffffffffffffffffffffffffffff1673ffffffffffffffffffffffffffffffffffffffff16815260200190815260200160002060000154826111cf90919063ffffffff16565b600960003373ffffffffffffffffffffffffffffffffffffffff1673ffffffffffffffffffffffffffffffffffffffff16815260200190815260200160002060000181905550600260009054906101000a900473ffffffffffffffffffffffffffffffffffffffff1673ffffffffffffffffffffffffffffffffffffffff166379cc679033836040518363ffffffff1660e01b8152600401610fd4929190611927565b600060405180830381600087803b158015610fee57600080fd5b505af1158015611002573d6000803e3d6000fd5b50505050611033600160009054906101000a900473ffffffffffffffffffffffffffffffffffffffff163383611510565b803373ffffffffffffffffffffffffffffffffffffffff167f5bf3de5a615e3ea9c8e5fb8ee720979a495b366e62f33659c6cc184d2a4ddf7b60405160405180910390a3506001600060146101000a81548160ff021916908315150217905550565b61109d6111e5565b73ffffffffffffffffffffffffffffffffffffffff166110bb6108c3565b73ffffffffffffffffffffffffffffffffffffffff1614611111576040517f08c379a0000000000000000000000000000000000000000000000000000000008152600401611108906119b0565b60405180910390fd5b600073ffffffffffffffffffffffffffffffffffffffff168173ffffffffffffffffffffffffffffffffffffffff161415611181576040517f08c379a000000000000000000000000000000000000000000000000000000000815260040161117890611970565b60405180910390fd5b61118a8161144c565b50565b6000818361119b9190611b3e565b905092915050565b600081836111b19190611b0d565b905092915050565b600081836111c79190611b98565b905092915050565b600081836111dd9190611ab7565b905092915050565b600033905090565b60008273ffffffffffffffffffffffffffffffffffffffff1682600067ffffffffffffffff811115611248577f4e487b7100000000000000000000000000000000000000000000000000000000600052604160045260246000fd5b6040519080825280601f01601f19166020018201604052801561127a5781602001600182028036833780820191505090505b5060405161128891906118be565b60006040518083038185875af1925050503d80600081146112c5576040519150601f19603f3d011682016040523d82523d6000602084013e6112ca565b606091505b505090508061130e576040517f08c379a0000000000000000000000000000000000000000000000000000000008152600401611305906119d0565b60405180910390fd5b505050565b6000808573ffffffffffffffffffffffffffffffffffffffff166323b872dd868686604051602401611347939291906118f0565b6040516020818303038152906040529060e01b6020820180517bffffffffffffffffffffffffffffffffffffffffffffffffffffffff838183161783525050505060405161139591906118be565b6000604051808303816000865af19150503d80600081146113d2576040519150601f19603f3d011682016040523d82523d6000602084013e6113d7565b606091505b5091509150818015611405575060008151148061140457508080602001905181019061140391906116ff565b5b5b611444576040517f08c379a000000000000000000000000000000000000000000000000000000000815260040161143b906119f0565b60405180910390fd5b505050505050565b60008060009054906101000a900473ffffffffffffffffffffffffffffffffffffffff169050816000806101000a81548173ffffffffffffffffffffffffffffffffffffffff021916908373ffffffffffffffffffffffffffffffffffffffff1602179055508173ffffffffffffffffffffffffffffffffffffffff168173ffffffffffffffffffffffffffffffffffffffff167f8be0079c531659141344cd1fd0a4f28419497f9722a3daafe3b4186f6b6457e060405160405180910390a35050565b6000808473ffffffffffffffffffffffffffffffffffffffff1663a9059cbb8585604051602401611542929190611927565b6040516020818303038152906040529060e01b6020820180517bffffffffffffffffffffffffffffffffffffffffffffffffffffffff838183161783525050505060405161159091906118be565b6000604051808303816000865af19150503d80600081146115cd576040519150601f19603f3d011682016040523d82523d6000602084013e6115d2565b606091505b509150915081801561160057506000815114806115ff5750808060200190518101906115fe91906116ff565b5b5b61163f576040517f08c379a000000000000000000000000000000000000000000000000000000000815260040161163690611950565b60405180910390fd5b5050505050565b60008135905061165581611e36565b92915050565b60008151905061166a81611e4d565b92915050565b60008135905061167f81611e64565b92915050565b60008151905061169481611e64565b92915050565b6000602082840312156116ac57600080fd5b60006116ba84828501611646565b91505092915050565b600080604083850312156116d657600080fd5b60006116e485828601611646565b92505060206116f585828601611646565b9150509250929050565b60006020828403121561171157600080fd5b600061171f8482850161165b565b91505092915050565b60006020828403121561173a57600080fd5b600061174884828501611670565b91505092915050565b60006020828403121561176357600080fd5b600061177184828501611685565b91505092915050565b61178381611bcc565b82525050565b600061179482611a90565b61179e8185611a9b565b93506117ae818560208601611c14565b80840191505092915050565b60006117c7601f83611aa6565b91506117d282611ca5565b602082019050919050565b60006117ea602683611aa6565b91506117f582611cce565b604082019050919050565b600061180d601083611aa6565b915061181882611d1d565b602082019050919050565b6000611830602083611aa6565b915061183b82611d46565b602082019050919050565b6000611853602383611aa6565b915061185e82611d6f565b604082019050919050565b6000611876602483611aa6565b915061188182611dbe565b604082019050919050565b6000611899601f83611aa6565b91506118a482611e0d565b602082019050919050565b6118b881611c0a565b82525050565b60006118ca8284611789565b915081905092915050565b60006020820190506118ea600083018461177a565b92915050565b6000606082019050611905600083018661177a565b611912602083018561177a565b61191f60408301846118af565b949350505050565b600060408201905061193c600083018561177a565b61194960208301846118af565b9392505050565b60006020820190508181036000830152611969816117ba565b9050919050565b60006020820190508181036000830152611989816117dd565b9050919050565b600060208201905081810360008301526119a981611800565b9050919050565b600060208201905081810360008301526119c981611823565b9050919050565b600060208201905081810360008301526119e981611846565b9050919050565b60006020820190508181036000830152611a0981611869565b9050919050565b60006020820190508181036000830152611a298161188c565b9050919050565b6000602082019050611a4560008301846118af565b92915050565b6000608082019050611a6060008301876118af565b611a6d60208301866118af565b611a7a60408301856118af565b611a8760608301846118af565b95945050505050565b600081519050919050565b600081905092915050565b600082825260208201905092915050565b6000611ac282611c0a565b9150611acd83611c0a565b9250827fffffffffffffffffffffffffffffffffffffffffffffffffffffffffffffffff03821115611b0257611b01611c47565b5b828201905092915050565b6000611b1882611c0a565b9150611b2383611c0a565b925082611b3357611b32611c76565b5b828204905092915050565b6000611b4982611c0a565b9150611b5483611c0a565b9250817fffffffffffffffffffffffffffffffffffffffffffffffffffffffffffffffff0483118215151615611b8d57611b8c611c47565b5b828202905092915050565b6000611ba382611c0a565b9150611bae83611c0a565b925082821015611bc157611bc0611c47565b5b828203905092915050565b6000611bd782611bea565b9050919050565b60008115159050919050565b600073ffffffffffffffffffffffffffffffffffffffff82169050919050565b6000819050919050565b60005b83811015611c32578082015181840152602081019050611c17565b83811115611c41576000848401525b50505050565b7f4e487b7100000000000000000000000000000000000000000000000000000000600052601160045260246000fd5b7f4e487b7100000000000000000000000000000000000000000000000000000000600052601260045260246000fd5b7f5472616e7366657248656c7065723a205452414e534645525f4641494c454400600082015250565b7f4f776e61626c653a206e6577206f776e657220697320746865207a65726f206160008201527f6464726573730000000000000000000000000000000000000000000000000000602082015250565b7f6e6f2072657761726420616d6f756e7400000000000000000000000000000000600082015250565b7f4f776e61626c653a2063616c6c6572206973206e6f7420746865206f776e6572600082015250565b7f5472616e7366657248656c7065723a204554485f5452414e534645525f46414960008201527f4c45440000000000000000000000000000000000000000000000000000000000602082015250565b7f5472616e7366657248656c7065723a205452414e534645525f46524f4d5f464160008201527f494c454400000000000000000000000000000000000000000000000000000000602082015250565b7f5265656e7472616e637947756172643a207265656e7472616e742063616c6c00600082015250565b611e3f81611bcc565b8114611e4a57600080fd5b50565b611e5681611bde565b8114611e6157600080fd5b50565b611e6d81611c0a565b8114611e7857600080fd5b5056fea2646970667358221220d569543d5c8e545541e233d62463827109f6c1c8190ea35fb1cfe8344c6715df64736f6c63430008020033",
  "linkReferences": {},
  "deployedLinkReferences": {}
}