{
  "_format": "hh-sol-artifact-1",
  "contractName": "ScFarmForStaker",
  "sourceName": "contracts/ScFarmForStaker.sol",
  "abi": [
    {
      "anonymous": false,
      "inputs": [
        {
          "indexed": true,
          "internalType": "address",
          "name": "staker",
          "type": "address"
        },
        {
          "indexed": true,
          "internalType": "uint256",
          "name": "oldAmount",
          "type": "uint256"
        },
        {
          "indexed": true,
          "internalType": "uint256",
          "name": "newAmount",
          "type": "uint256"
        }
      ],
      "name": "ChangeStakeAmount",
      "type": "event"
    },
    {
      "anonymous": false,
      "inputs": [
        {
          "indexed": false,
          "internalType": "address",
          "name": "sender",
          "type": "address"
        },
        {
          "indexed": false,
          "internalType": "address",
          "name": "pair",
          "type": "address"
        },
        {
          "indexed": false,
          "internalType": "address",
          "name": "ths",
          "type": "address"
        },
        {
          "indexed": false,
          "internalType": "address",
          "name": "usdt",
          "type": "address"
        },
        {
          "indexed": false,
          "internalType": "address",
          "name": "staking",
          "type": "address"
        },
        {
          "indexed": false,
          "internalType": "address",
          "name": "sc",
          "type": "address"
        }
      ],
      "name": "Initalize",
      "type": "event"
    },
    {
      "anonymous": false,
      "inputs": [
        {
          "indexed": true,
          "internalType": "bytes32",
          "name": "role",
          "type": "bytes32"
        },
        {
          "indexed": true,
          "internalType": "bytes32",
          "name": "previousAdminRole",
          "type": "bytes32"
        },
        {
          "indexed": true,
          "internalType": "bytes32",
          "name": "newAdminRole",
          "type": "bytes32"
        }
      ],
      "name": "RoleAdminChanged",
      "type": "event"
    },
    {
      "anonymous": false,
      "inputs": [
        {
          "indexed": true,
          "internalType": "bytes32",
          "name": "role",
          "type": "bytes32"
        },
        {
          "indexed": true,
          "internalType": "address",
          "name": "account",
          "type": "address"
        },
        {
          "indexed": true,
          "internalType": "address",
          "name": "sender",
          "type": "address"
        }
      ],
      "name": "RoleGranted",
      "type": "event"
    },
    {
      "anonymous": false,
      "inputs": [
        {
          "indexed": true,
          "internalType": "bytes32",
          "name": "role",
          "type": "bytes32"
        },
        {
          "indexed": true,
          "internalType": "address",
          "name": "account",
          "type": "address"
        },
        {
          "indexed": true,
          "internalType": "address",
          "name": "sender",
          "type": "address"
        }
      ],
      "name": "RoleRevoked",
      "type": "event"
    },
    {
      "inputs": [],
      "name": "DEFAULT_ADMIN_ROLE",
      "outputs": [
        {
          "internalType": "bytes32",
          "name": "",
          "type": "bytes32"
        }
      ],
      "stateMutability": "view",
      "type": "function"
    },
    {
      "inputs": [],
      "name": "MANAGER_ROLE",
      "outputs": [
        {
          "internalType": "bytes32",
          "name": "",
          "type": "bytes32"
        }
      ],
      "stateMutability": "view",
      "type": "function"
    },
    {
      "inputs": [],
      "name": "ONE_SC",
      "outputs": [
        {
          "internalType": "uint256",
          "name": "",
          "type": "uint256"
        }
      ],
      "stateMutability": "view",
      "type": "function"
    },
    {
      "inputs": [],
      "name": "ONE_THS",
      "outputs": [
        {
          "internalType": "uint256",
          "name": "",
          "type": "uint256"
        }
      ],
      "stateMutability": "view",
      "type": "function"
    },
    {
      "inputs": [],
      "name": "ONE_USDT",
      "outputs": [
        {
          "internalType": "uint256",
          "name": "",
          "type": "uint256"
        }
      ],
      "stateMutability": "view",
      "type": "function"
    },
    {
      "inputs": [],
      "name": "OWNER_ROLE",
      "outputs": [
        {
          "internalType": "bytes32",
          "name": "",
          "type": "bytes32"
        }
      ],
      "stateMutability": "view",
      "type": "function"
    },
    {
      "inputs": [
        {
          "internalType": "address[]",
          "name": "_users",
          "type": "address[]"
        }
      ],
      "name": "addManagerBatch",
      "outputs": [],
      "stateMutability": "nonpayable",
      "type": "function"
    },
    {
      "inputs": [
        {
          "internalType": "address",
          "name": "_newOwner",
          "type": "address"
        }
      ],
      "name": "changeOwner",
      "outputs": [],
      "stateMutability": "nonpayable",
      "type": "function"
    },
    {
      "inputs": [
        {
          "internalType": "address",
          "name": "_staker",
          "type": "address"
        },
        {
          "internalType": "uint256",
          "name": "_newAmount",
          "type": "uint256"
        }
      ],
      "name": "changeStakeAmount",
      "outputs": [],
      "stateMutability": "nonpayable",
      "type": "function"
    },
    {
      "inputs": [],
      "name": "claim",
      "outputs": [],
      "stateMutability": "nonpayable",
      "type": "function"
    },
    {
      "inputs": [],
      "name": "earnScMax",
      "outputs": [
        {
          "internalType": "uint256",
          "name": "",
          "type": "uint256"
        }
      ],
      "stateMutability": "view",
      "type": "function"
    },
    {
      "inputs": [
        {
          "internalType": "bytes32",
          "name": "role",
          "type": "bytes32"
        }
      ],
      "name": "getRoleAdmin",
      "outputs": [
        {
          "internalType": "bytes32",
          "name": "",
          "type": "bytes32"
        }
      ],
      "stateMutability": "view",
      "type": "function"
    },
    {
      "inputs": [
        {
          "internalType": "bytes32",
          "name": "role",
          "type": "bytes32"
        },
        {
          "internalType": "address",
          "name": "account",
          "type": "address"
        }
      ],
      "name": "grantRole",
      "outputs": [],
      "stateMutability": "nonpayable",
      "type": "function"
    },
    {
      "inputs": [
        {
          "internalType": "bytes32",
          "name": "role",
          "type": "bytes32"
        },
        {
          "internalType": "address",
          "name": "account",
          "type": "address"
        }
      ],
      "name": "hasRole",
      "outputs": [
        {
          "internalType": "bool",
          "name": "",
          "type": "bool"
        }
      ],
      "stateMutability": "view",
      "type": "function"
    },
    {
      "inputs": [],
      "name": "initFlag",
      "outputs": [
        {
          "internalType": "bool",
          "name": "",
          "type": "bool"
        }
      ],
      "stateMutability": "view",
      "type": "function"
    },
    {
      "inputs": [
        {
          "internalType": "address",
          "name": "_pair",
          "type": "address"
        },
        {
          "internalType": "address",
          "name": "_ths",
          "type": "address"
        },
        {
          "internalType": "address",
          "name": "_usdt",
          "type": "address"
        },
        {
          "internalType": "address",
          "name": "_staking",
          "type": "address"
        },
        {
          "internalType": "address",
          "name": "_sc",
          "type": "address"
        }
      ],
      "name": "initalize",
      "outputs": [],
      "stateMutability": "nonpayable",
      "type": "function"
    },
    {
      "inputs": [],
      "name": "levelDec",
      "outputs": [
        {
          "internalType": "uint256",
          "name": "",
          "type": "uint256"
        }
      ],
      "stateMutability": "view",
      "type": "function"
    },
    {
      "inputs": [],
      "name": "pairAddr",
      "outputs": [
        {
          "internalType": "address",
          "name": "",
          "type": "address"
        }
      ],
      "stateMutability": "view",
      "type": "function"
    },
    {
      "inputs": [
        {
          "internalType": "address",
          "name": "_addr",
          "type": "address"
        }
      ],
      "name": "pendingReward",
      "outputs": [
        {
          "internalType": "uint256",
          "name": "pendingReward_",
          "type": "uint256"
        }
      ],
      "stateMutability": "view",
      "type": "function"
    },
    {
      "inputs": [
        {
          "internalType": "address",
          "name": "_user",
          "type": "address"
        }
      ],
      "name": "removeManager",
      "outputs": [],
      "stateMutability": "nonpayable",
      "type": "function"
    },
    {
      "inputs": [
        {
          "internalType": "bytes32",
          "name": "role",
          "type": "bytes32"
        },
        {
          "internalType": "address",
          "name": "account",
          "type": "address"
        }
      ],
      "name": "renounceRole",
      "outputs": [],
      "stateMutability": "nonpayable",
      "type": "function"
    },
    {
      "inputs": [
        {
          "internalType": "bytes32",
          "name": "role",
          "type": "bytes32"
        },
        {
          "internalType": "address",
          "name": "account",
          "type": "address"
        }
      ],
      "name": "revokeRole",
      "outputs": [],
      "stateMutability": "nonpayable",
      "type": "function"
    },
    {
      "inputs": [],
      "name": "scAddr",
      "outputs": [
        {
          "internalType": "address",
          "name": "",
          "type": "address"
        }
      ],
      "stateMutability": "view",
      "type": "function"
    },
    {
      "inputs": [
        {
          "internalType": "uint256",
          "name": "_newMax",
          "type": "uint256"
        }
      ],
      "name": "setEarnScMax",
      "outputs": [],
      "stateMutability": "nonpayable",
      "type": "function"
    },
    {
      "inputs": [
        {
          "internalType": "uint256",
          "name": "_newReward",
          "type": "uint256"
        }
      ],
      "name": "setStakeRewardPerLevelPerBlock",
      "outputs": [],
      "stateMutability": "nonpayable",
      "type": "function"
    },
    {
      "inputs": [],
      "name": "stakeRewardPerLevelPerBlock",
      "outputs": [
        {
          "internalType": "uint256",
          "name": "",
          "type": "uint256"
        }
      ],
      "stateMutability": "view",
      "type": "function"
    },
    {
      "inputs": [
        {
          "internalType": "address",
          "name": "",
          "type": "address"
        }
      ],
      "name": "stakedInfoOf",
      "outputs": [
        {
          "internalType": "uint256",
          "name": "currentStakedTHS",
          "type": "uint256"
        },
        {
          "internalType": "uint256",
          "name": "lastEarnedBlock",
          "type": "uint256"
        },
        {
          "internalType": "uint256",
          "name": "lastEarnedAmount",
          "type": "uint256"
        },
        {
          "internalType": "uint256",
          "name": "lasEarnedStakedTHS",
          "type": "uint256"
        },
        {
          "internalType": "uint256",
          "name": "lasEarnedStakeThsAsUsdt",
          "type": "uint256"
        },
        {
          "internalType": "uint256",
          "name": "earnedTotal",
          "type": "uint256"
        }
      ],
      "stateMutability": "view",
      "type": "function"
    },
    {
      "inputs": [
        {
          "internalType": "bytes4",
          "name": "interfaceId",
          "type": "bytes4"
        }
      ],
      "name": "supportsInterface",
      "outputs": [
        {
          "internalType": "bool",
          "name": "",
          "type": "bool"
        }
      ],
      "stateMutability": "view",
      "type": "function"
    },
    {
      "inputs": [],
      "name": "thsAddr",
      "outputs": [
        {
          "internalType": "address",
          "name": "",
          "type": "address"
        }
      ],
      "stateMutability": "view",
      "type": "function"
    },
    {
      "inputs": [],
      "name": "thsStaking",
      "outputs": [
        {
          "internalType": "address",
          "name": "",
          "type": "address"
        }
      ],
      "stateMutability": "view",
      "type": "function"
    },
    {
      "inputs": [],
      "name": "usdtAddr",
      "outputs": [
        {
          "internalType": "address",
          "name": "",
          "type": "address"
        }
      ],
      "stateMutability": "view",
      "type": "function"
    },
    {
      "inputs": [
        {
          "internalType": "uint256",
          "name": "_thsAmount",
          "type": "uint256"
        }
      ],
      "name": "viewAsUsdt",
      "outputs": [
        {
          "internalType": "uint256",
          "name": "usdtAmount_",
          "type": "uint256"
        }
      ],
      "stateMutability": "view",
      "type": "function"
    },
    {
      "inputs": [
        {
          "internalType": "address",
          "name": "_token",
          "type": "address"
        },
        {
          "internalType": "address",
          "name": "_to",
          "type": "address"
        }
      ],
      "name": "withdrawToken",
      "outputs": [],
      "stateMutability": "nonpayable",
      "type": "function"
    }
  ],
  "bytecode": "0x608060405260405180604001604052807fb19546dff01e856fb3f010c267a7b1c60363cf8a4664e21cc89c26224620214e81526020017f241ecf16d79d0f8dbfb92cbc07fe17840425976cf0667f022fe9877caa831b0881525060019060026200006b929190620003f3565b50670de0b6b3a764000061012c62000084919062000464565b600755651f9465b8ab8e6008553480156200009e57600080fd5b50620000d17f241ecf16d79d0f8dbfb92cbc07fe17840425976cf0667f022fe9877caa831b08336200012260201b60201c565b620000e16200013860201b60201c565b62000101620000f56200018c60201b60201c565b6200019460201b60201c565b6001600260006101000a81548160ff0219169083151502179055506200054c565b6200013482826200021660201b60201c565b5050565b6200018a7f241ecf16d79d0f8dbfb92cbc07fe17840425976cf0667f022fe9877caa831b087fb19546dff01e856fb3f010c267a7b1c60363cf8a4664e21cc89c26224620214e6200030760201b60201c565b565b600033905090565b60005b6001805490508110156200021257620001fc60018281548110620001e4577f4e487b7100000000000000000000000000000000000000000000000000000000600052603260045260246000fd5b9060005260206000200154836200012260201b60201c565b80806200020990620004cf565b91505062000197565b5050565b6200022882826200036a60201b60201c565b6200030357600160008084815260200190815260200160002060000160008373ffffffffffffffffffffffffffffffffffffffff1673ffffffffffffffffffffffffffffffffffffffff16815260200190815260200160002060006101000a81548160ff021916908315150217905550620002a86200018c60201b60201c565b73ffffffffffffffffffffffffffffffffffffffff168173ffffffffffffffffffffffffffffffffffffffff16837f2f8788117e7eff1d82e926ec794901d17c78024a50270940304540a733656f0d60405160405180910390a45b5050565b60006200031a83620003d460201b60201c565b905081600080858152602001908152602001600020600101819055508181847fbd79b86ffe0ab8e8776151514217cd7cacd52c909f66475c3af44e129f0b00ff60405160405180910390a4505050565b600080600084815260200190815260200160002060000160008373ffffffffffffffffffffffffffffffffffffffff1673ffffffffffffffffffffffffffffffffffffffff16815260200190815260200160002060009054906101000a900460ff16905092915050565b6000806000838152602001908152602001600020600101549050919050565b82805482825590600052602060002090810192821562000432579160200282015b828111156200043157825182559160200191906001019062000414565b5b50905062000441919062000445565b5090565b5b808211156200046057600081600090555060010162000446565b5090565b60006200047182620004c5565b91506200047e83620004c5565b9250817fffffffffffffffffffffffffffffffffffffffffffffffffffffffffffffffff0483118215151615620004ba57620004b96200051d565b5b828202905092915050565b6000819050919050565b6000620004dc82620004c5565b91507fffffffffffffffffffffffffffffffffffffffffffffffffffffffffffffffff8214156200051257620005116200051d565b5b600182019050919050565b7f4e487b7100000000000000000000000000000000000000000000000000000000600052601160045260246000fd5b613caf806200055c6000396000f3fe608060405234801561001057600080fd5b50600436106101fb5760003560e01c8063803039d91161011a578063b3d94a5e116100ad578063dff935d01161007c578063dff935d01461056d578063e58378bb1461059d578063ec87621c146105bb578063f40f0f52146105d9578063fcb30cd514610609576101fb565b8063b3d94a5e146104f9578063cb66b40c14610517578063ce447e9b14610535578063d547741f14610551576101fb565b8063a217fddf116100e9578063a217fddf14610487578063a6f9dae1146104a5578063a7c8cb4d146104c1578063ac18de43146104dd576101fb565b8063803039d9146103ff5780638521dc471461041d57806391d1485414610439578063938c0a1514610469576101fb565b806336568abe116101925780634f4fc99b116101615780634f4fc99b146103875780634fa828a4146103a55780635460b84a146103c357806360f91f2c146103e1576101fb565b806336568abe146103275780633aeac4e1146103435780633fd3eb1f1461035f5780634e71d92d1461037d576101fb565b80631554e1ce116101ce5780631554e1ce1461029f5780631f9c29e1146102bd578063248a9ca3146102db5780632f2ff15d1461030b576101fb565b806301ffc9a71461020057806304b376c8146102305780630df3b62c1461024e57806311b9425f14610283575b600080fd5b61021a60048036038101906102159190612c40565b610625565b60405161022791906131a7565b60405180910390f35b61023861069f565b60405161024591906130cb565b60405180910390f35b61026860048036038101906102639190612a30565b6106c5565b60405161027a9695949392919061343a565b60405180910390f35b61029d60048036038101906102989190612b35565b610701565b005b6102a76108c1565b6040516102b491906130cb565b60405180910390f35b6102c56108e7565b6040516102d2919061341f565b60405180910390f35b6102f560048036038101906102f09190612bdb565b610900565b60405161030291906131c2565b60405180910390f35b61032560048036038101906103209190612c04565b61091f565b005b610341600480360381019061033c9190612c04565b610948565b005b61035d60048036038101906103589190612a82565b6109cb565b005b610367610b9d565b60405161037491906131a7565b60405180910390f35b610385610bb0565b005b61038f610cd5565b60405161039c91906130cb565b60405180910390f35b6103ad610cf9565b6040516103ba919061341f565b60405180910390f35b6103cb610d01565b6040516103d8919061341f565b60405180910390f35b6103e9610d07565b6040516103f6919061341f565b60405180910390f35b610407610d0d565b604051610414919061341f565b60405180910390f35b61043760048036038101906104329190612cb8565b610d19565b005b610453600480360381019061044e9190612c04565b610d93565b60405161046091906131a7565b60405180910390f35b610471610dfd565b60405161047e919061341f565b60405180910390f35b61048f610e09565b60405161049c91906131c2565b60405180910390f35b6104bf60048036038101906104ba9190612a30565b610e10565b005b6104db60048036038101906104d69190612abe565b610f1a565b005b6104f760048036038101906104f29190612a30565b6112d5565b005b6105016113db565b60405161050e91906130cb565b60405180910390f35b61051f611401565b60405161052c91906130cb565b60405180910390f35b61054f600480360381019061054a9190612cb8565b611427565b005b61056b60048036038101906105669190612c04565b6114a1565b005b61058760048036038101906105829190612cb8565b6114ca565b604051610594919061341f565b60405180910390f35b6105a5611892565b6040516105b291906131c2565b60405180910390f35b6105c36118b6565b6040516105d091906131c2565b60405180910390f35b6105f360048036038101906105ee9190612a30565b6118da565b604051610600919061341f565b60405180910390f35b610623600480360381019061061e9190612b71565b611a3a565b005b60007f7965db0b000000000000000000000000000000000000000000000000000000007bffffffffffffffffffffffffffffffffffffffffffffffffffffffff1916827bffffffffffffffffffffffffffffffffffffffffffffffffffffffff19161480610698575061069782611bb9565b5b9050919050565b600660009054906101000a900473ffffffffffffffffffffffffffffffffffffffff1681565b60096020528060005260406000206000915090508060000154908060010154908060020154908060030154908060040154908060050154905086565b3373ffffffffffffffffffffffffffffffffffffffff16600560009054906101000a900473ffffffffffffffffffffffffffffffffffffffff1673ffffffffffffffffffffffffffffffffffffffff1614610791576040517f08c379a00000000000000000000000000000000000000000000000000000000081526004016107889061325f565b60405180910390fd5b600260019054906101000a900460ff166107e0576040517f08c379a00000000000000000000000000000000000000000000000000000000081526004016107d79061321f565b60405180910390fd5b6000600960008473ffffffffffffffffffffffffffffffffffffffff1673ffffffffffffffffffffffffffffffffffffffff16815260200190815260200160002060000154905061083083611c23565b81600960008573ffffffffffffffffffffffffffffffffffffffff1673ffffffffffffffffffffffffffffffffffffffff1681526020019081526020016000206000018190555081818473ffffffffffffffffffffffffffffffffffffffff167f95b53cd2c5aab31b8b239cac46797315a9aed9b7c97b4266ca329d00c90d0f6d60405160405180910390a4505050565b600460009054906101000a900473ffffffffffffffffffffffffffffffffffffffff1681565b670de0b6b3a76400006103e86108fd91906135b0565b81565b6000806000838152602001908152602001600020600101549050919050565b61092882610900565b61093981610934611f5b565b611f63565b6109438383612000565b505050565b610950611f5b565b73ffffffffffffffffffffffffffffffffffffffff168173ffffffffffffffffffffffffffffffffffffffff16146109bd576040517f08c379a00000000000000000000000000000000000000000000000000000000081526004016109b4906133ff565b60405180910390fd5b6109c782826120e0565b5050565b6109fc7fb19546dff01e856fb3f010c267a7b1c60363cf8a4664e21cc89c26224620214e6109f7611f5b565b610d93565b610a3b576040517f08c379a0000000000000000000000000000000000000000000000000000000008152600401610a329061335f565b60405180910390fd5b600260009054906101000a900460ff16610a8a576040517f08c379a0000000000000000000000000000000000000000000000000000000008152600401610a81906133df565b60405180910390fd5b6000600260006101000a81548160ff0219169083151502179055508173ffffffffffffffffffffffffffffffffffffffff16600073ffffffffffffffffffffffffffffffffffffffff161415610ae957610ae481476121c1565b610b7e565b610b7d8230838573ffffffffffffffffffffffffffffffffffffffff166370a08231306040518263ffffffff1660e01b8152600401610b2891906130cb565b60206040518083038186803b158015610b4057600080fd5b505afa158015610b54573d6000803e3d6000fd5b505050506040513d601f19601f82011682018060405250810190610b789190612ce1565b6122e7565b5b6001600260006101000a81548160ff0219169083151502179055505050565b600260019054906101000a900460ff1681565b6000600960003373ffffffffffffffffffffffffffffffffffffffff1673ffffffffffffffffffffffffffffffffffffffff1681526020019081526020016000206040518060c0016040529081600082015481526020016001820154815260200160028201548152602001600382015481526020016004820154815260200160058201548152505090508060000151600010610c81576040517f08c379a0000000000000000000000000000000000000000000000000000000008152600401610c789061323f565b60405180910390fd5b8060a0015160075411610cc9576040517f08c379a0000000000000000000000000000000000000000000000000000000008152600401610cc09061333f565b60405180910390fd5b610cd233611c23565b50565b60028054906101000a900473ffffffffffffffffffffffffffffffffffffffff1681565b633b9aca0081565b60085481565b60075481565b670de0b6b3a764000081565b610d4a7f241ecf16d79d0f8dbfb92cbc07fe17840425976cf0667f022fe9877caa831b08610d45611f5b565b610d93565b610d89576040517f08c379a0000000000000000000000000000000000000000000000000000000008152600401610d809061327f565b60405180910390fd5b8060078190555050565b600080600084815260200190815260200160002060000160008373ffffffffffffffffffffffffffffffffffffffff1673ffffffffffffffffffffffffffffffffffffffff16815260200190815260200160002060009054906101000a900460ff16905092915050565b670de0b6b3a764000081565b6000801b81565b610e417f241ecf16d79d0f8dbfb92cbc07fe17840425976cf0667f022fe9877caa831b08610e3c611f5b565b610d93565b610e80576040517f08c379a0000000000000000000000000000000000000000000000000000000008152600401610e779061327f565b60405180910390fd5b6000610e8a611f5b565b90508073ffffffffffffffffffffffffffffffffffffffff168273ffffffffffffffffffffffffffffffffffffffff161415610efb576040517f08c379a0000000000000000000000000000000000000000000000000000000008152600401610ef2906132df565b60405180910390fd5b610f0482612420565b610f0d82612493565b610f1681612508565b5050565b610f4b7f241ecf16d79d0f8dbfb92cbc07fe17840425976cf0667f022fe9877caa831b08610f46611f5b565b610d93565b610f8a576040517f08c379a0000000000000000000000000000000000000000000000000000000008152600401610f819061327f565b60405180910390fd5b600260019054906101000a900460ff1615610fda576040517f08c379a0000000000000000000000000000000000000000000000000000000008152600401610fd19061339f565b60405180910390fd5b8473ffffffffffffffffffffffffffffffffffffffff16600073ffffffffffffffffffffffffffffffffffffffff161415801561104457508373ffffffffffffffffffffffffffffffffffffffff16600073ffffffffffffffffffffffffffffffffffffffff1614155b801561107d57508273ffffffffffffffffffffffffffffffffffffffff16600073ffffffffffffffffffffffffffffffffffffffff1614155b80156110b657508173ffffffffffffffffffffffffffffffffffffffff16600073ffffffffffffffffffffffffffffffffffffffff1614155b80156110ef57508073ffffffffffffffffffffffffffffffffffffffff16600073ffffffffffffffffffffffffffffffffffffffff1614155b61112e576040517f08c379a0000000000000000000000000000000000000000000000000000000008152600401611125906132bf565b60405180910390fd5b846002806101000a81548173ffffffffffffffffffffffffffffffffffffffff021916908373ffffffffffffffffffffffffffffffffffffffff16021790555083600360006101000a81548173ffffffffffffffffffffffffffffffffffffffff021916908373ffffffffffffffffffffffffffffffffffffffff16021790555082600460006101000a81548173ffffffffffffffffffffffffffffffffffffffff021916908373ffffffffffffffffffffffffffffffffffffffff16021790555081600560006101000a81548173ffffffffffffffffffffffffffffffffffffffff021916908373ffffffffffffffffffffffffffffffffffffffff16021790555080600660006101000a81548173ffffffffffffffffffffffffffffffffffffffff021916908373ffffffffffffffffffffffffffffffffffffffff1602179055506001600260016101000a81548160ff0219169083151502179055507fb64cd928397c668d0b1d067968118f196c298ec30b579f3421363524befabff13386868686866040516112c6969594939291906130e6565b60405180910390a15050505050565b6113067fb19546dff01e856fb3f010c267a7b1c60363cf8a4664e21cc89c26224620214e611301611f5b565b610d93565b611345576040517f08c379a000000000000000000000000000000000000000000000000000000000815260040161133c9061335f565b60405180910390fd5b61136f7f241ecf16d79d0f8dbfb92cbc07fe17840425976cf0667f022fe9877caa831b0882610d93565b6113ae576040517f08c379a00000000000000000000000000000000000000000000000000000000081526004016113a5906132ff565b60405180910390fd5b6113d87f241ecf16d79d0f8dbfb92cbc07fe17840425976cf0667f022fe9877caa831b08826114a1565b50565b600560009054906101000a900473ffffffffffffffffffffffffffffffffffffffff1681565b600360009054906101000a900473ffffffffffffffffffffffffffffffffffffffff1681565b6114587f241ecf16d79d0f8dbfb92cbc07fe17840425976cf0667f022fe9877caa831b08611453611f5b565b610d93565b611497576040517f08c379a000000000000000000000000000000000000000000000000000000000815260040161148e9061327f565b60405180910390fd5b8060088190555050565b6114aa82610900565b6114bb816114b6611f5b565b611f63565b6114c583836120e0565b505050565b600080600060028054906101000a900473ffffffffffffffffffffffffffffffffffffffff1673ffffffffffffffffffffffffffffffffffffffff16630902f1ac6040518163ffffffff1660e01b815260040160606040518083038186803b15801561153557600080fd5b505afa158015611549573d6000803e3d6000fd5b505050506040513d601f19601f8201168201806040525081019061156d9190612c69565b506dffffffffffffffffffffffffffff1691506dffffffffffffffffffffffffffff169150600060028054906101000a900473ffffffffffffffffffffffffffffffffffffffff1673ffffffffffffffffffffffffffffffffffffffff16630dfe16816040518163ffffffff1660e01b815260040160206040518083038186803b1580156115fa57600080fd5b505afa15801561160e573d6000803e3d6000fd5b505050506040513d601f19601f820116820180604052508101906116329190612a59565b9050600060028054906101000a900473ffffffffffffffffffffffffffffffffffffffff1673ffffffffffffffffffffffffffffffffffffffff1663d21220a76040518163ffffffff1660e01b815260040160206040518083038186803b15801561169c57600080fd5b505afa1580156116b0573d6000803e3d6000fd5b505050506040513d601f19601f820116820180604052508101906116d49190612a59565b90508173ffffffffffffffffffffffffffffffffffffffff16600360009054906101000a900473ffffffffffffffffffffffffffffffffffffffff1673ffffffffffffffffffffffffffffffffffffffff1614801561178057508073ffffffffffffffffffffffffffffffffffffffff16600460009054906101000a900473ffffffffffffffffffffffffffffffffffffffff1673ffffffffffffffffffffffffffffffffffffffff16145b156117b1576117aa8461179c858961257d90919063ffffffff16565b61259390919063ffffffff16565b9450611889565b8073ffffffffffffffffffffffffffffffffffffffff16600360009054906101000a900473ffffffffffffffffffffffffffffffffffffffff1673ffffffffffffffffffffffffffffffffffffffff1614801561185b57508173ffffffffffffffffffffffffffffffffffffffff16600460009054906101000a900473ffffffffffffffffffffffffffffffffffffffff1673ffffffffffffffffffffffffffffffffffffffff16145b156118885761188583611877868961257d90919063ffffffff16565b61259390919063ffffffff16565b94505b5b50505050919050565b7fb19546dff01e856fb3f010c267a7b1c60363cf8a4664e21cc89c26224620214e81565b7f241ecf16d79d0f8dbfb92cbc07fe17840425976cf0667f022fe9877caa831b0881565b600080600960008473ffffffffffffffffffffffffffffffffffffffff1673ffffffffffffffffffffffffffffffffffffffff1681526020019081526020016000206040518060c0016040529081600082015481526020016001820154815260200160028201548152602001600382015481526020016004820154815260200160058201548152505090508060a001516007541115611a3457600061198282600001516114ca565b905060006119ae670de0b6b3a76400006103e861199f91906135b0565b8361259390919063ffffffff16565b905060006119c98460200151436125a990919063ffffffff16565b90506119f26008546119e4838561257d90919063ffffffff16565b61257d90919063ffffffff16565b9450611a0b8460a00151866125bf90919063ffffffff16565b6007541015611a3057611a2d8460a001516007546125a990919063ffffffff16565b94505b5050505b50919050565b611a6b7f241ecf16d79d0f8dbfb92cbc07fe17840425976cf0667f022fe9877caa831b08611a66611f5b565b610d93565b611aaa576040517f08c379a0000000000000000000000000000000000000000000000000000000008152600401611aa19061327f565b60405180910390fd5b6000815111611aee576040517f08c379a0000000000000000000000000000000000000000000000000000000008152600401611ae59061331f565b60405180910390fd5b60005b8151811015611bb5576000828281518110611b35577f4e487b7100000000000000000000000000000000000000000000000000000000600052603260045260246000fd5b60200260200101519050611b4881612420565b611b727f241ecf16d79d0f8dbfb92cbc07fe17840425976cf0667f022fe9877caa831b0882610d93565b611ba157611ba07f241ecf16d79d0f8dbfb92cbc07fe17840425976cf0667f022fe9877caa831b088261091f565b5b508080611bad90613774565b915050611af1565b5050565b60007f01ffc9a7000000000000000000000000000000000000000000000000000000007bffffffffffffffffffffffffffffffffffffffffffffffffffffffff1916827bffffffffffffffffffffffffffffffffffffffffffffffffffffffff1916149050919050565b600260009054906101000a900460ff16611c72576040517f08c379a0000000000000000000000000000000000000000000000000000000008152600401611c69906133df565b60405180910390fd5b6000600260006101000a81548160ff0219169083151502179055506000600960008373ffffffffffffffffffffffffffffffffffffffff1673ffffffffffffffffffffffffffffffffffffffff1681526020019081526020016000206040518060c0016040529081600082015481526020016001820154815260200160028201548152602001600382015481526020016004820154815260200160058201548152505090506000611d2682600001516114ca565b90506000611d52670de0b6b3a76400006103e8611d4391906135b0565b8361259390919063ffffffff16565b90506000611d6d8460200151436125a990919063ffffffff16565b90506000611d98600854611d8a848661257d90919063ffffffff16565b61257d90919063ffffffff16565b9050611db18560a00151826125bf90919063ffffffff16565b6007541015611dd657611dd38560a001516007546125a990919063ffffffff16565b90505b6040518060c001604052808660000151815260200143815260200182815260200186600001518152602001858152602001611e1e8760a00151846125bf90919063ffffffff16565b815250600960008873ffffffffffffffffffffffffffffffffffffffff1673ffffffffffffffffffffffffffffffffffffffff168152602001908152602001600020600082015181600001556020820151816001015560408201518160020155606082015181600301556080820151816004015560a082015181600501559050506000811115611f3857600660009054906101000a900473ffffffffffffffffffffffffffffffffffffffff1673ffffffffffffffffffffffffffffffffffffffff166340c10f1987836040518363ffffffff1660e01b8152600401611f0592919061317e565b600060405180830381600087803b158015611f1f57600080fd5b505af1158015611f33573d6000803e3d6000fd5b505050505b50505050506001600260006101000a81548160ff02191690831515021790555050565b600033905090565b611f6d8282610d93565b611ffc57611f928173ffffffffffffffffffffffffffffffffffffffff1660146125d5565b611fa08360001c60206125d5565b604051602001611fb1929190613091565b6040516020818303038152906040526040517f08c379a0000000000000000000000000000000000000000000000000000000008152600401611ff391906131dd565b60405180910390fd5b5050565b61200a8282610d93565b6120dc57600160008084815260200190815260200160002060000160008373ffffffffffffffffffffffffffffffffffffffff1673ffffffffffffffffffffffffffffffffffffffff16815260200190815260200160002060006101000a81548160ff021916908315150217905550612081611f5b565b73ffffffffffffffffffffffffffffffffffffffff168173ffffffffffffffffffffffffffffffffffffffff16837f2f8788117e7eff1d82e926ec794901d17c78024a50270940304540a733656f0d60405160405180910390a45b5050565b6120ea8282610d93565b156121bd57600080600084815260200190815260200160002060000160008373ffffffffffffffffffffffffffffffffffffffff1673ffffffffffffffffffffffffffffffffffffffff16815260200190815260200160002060006101000a81548160ff021916908315150217905550612162611f5b565b73ffffffffffffffffffffffffffffffffffffffff168173ffffffffffffffffffffffffffffffffffffffff16837ff6391f5c32d9c69d2a47ea670b442974b53935d1edc7fd64eb21e047a839171b60405160405180910390a45b5050565b60008273ffffffffffffffffffffffffffffffffffffffff1682600067ffffffffffffffff81111561221c577f4e487b7100000000000000000000000000000000000000000000000000000000600052604160045260246000fd5b6040519080825280601f01601f19166020018201604052801561224e5781602001600182028036833780820191505090505b5060405161225c919061307a565b60006040518083038185875af1925050503d8060008114612299576040519150601f19603f3d011682016040523d82523d6000602084013e61229e565b606091505b50509050806122e2576040517f08c379a00000000000000000000000000000000000000000000000000000000081526004016122d99061337f565b60405180910390fd5b505050565b6000808573ffffffffffffffffffffffffffffffffffffffff166323b872dd86868660405160240161231b93929190613147565b6040516020818303038152906040529060e01b6020820180517bffffffffffffffffffffffffffffffffffffffffffffffffffffffff8381831617835250505050604051612369919061307a565b6000604051808303816000865af19150503d80600081146123a6576040519150601f19603f3d011682016040523d82523d6000602084013e6123ab565b606091505b50915091508180156123d957506000815114806123d85750808060200190518101906123d79190612bb2565b5b5b612418576040517f08c379a000000000000000000000000000000000000000000000000000000000815260040161240f906133bf565b60405180910390fd5b505050505050565b8073ffffffffffffffffffffffffffffffffffffffff16600073ffffffffffffffffffffffffffffffffffffffff161415612490576040517f08c379a00000000000000000000000000000000000000000000000000000000081526004016124879061329f565b60405180910390fd5b50565b60005b600180549050811015612504576124f1600182815481106124e0577f4e487b7100000000000000000000000000000000000000000000000000000000600052603260045260246000fd5b9060005260206000200154836128cf565b80806124fc90613774565b915050612496565b5050565b60005b6001805490508110156125795761256660018281548110612555577f4e487b7100000000000000000000000000000000000000000000000000000000600052603260045260246000fd5b906000526020600020015483610948565b808061257190613774565b91505061250b565b5050565b6000818361258b91906135b0565b905092915050565b600081836125a1919061357f565b905092915050565b600081836125b7919061360a565b905092915050565b600081836125cd9190613529565b905092915050565b6060600060028360026125e891906135b0565b6125f29190613529565b67ffffffffffffffff811115612631577f4e487b7100000000000000000000000000000000000000000000000000000000600052604160045260246000fd5b6040519080825280601f01601f1916602001820160405280156126635781602001600182028036833780820191505090505b5090507f3000000000000000000000000000000000000000000000000000000000000000816000815181106126c1577f4e487b7100000000000000000000000000000000000000000000000000000000600052603260045260246000fd5b60200101907effffffffffffffffffffffffffffffffffffffffffffffffffffffffffffff1916908160001a9053507f78000000000000000000000000000000000000000000000000000000000000008160018151811061274b577f4e487b7100000000000000000000000000000000000000000000000000000000600052603260045260246000fd5b60200101907effffffffffffffffffffffffffffffffffffffffffffffffffffffffffffff1916908160001a9053506000600184600261278b91906135b0565b6127959190613529565b90505b6001811115612881577f3031323334353637383961626364656600000000000000000000000000000000600f8616601081106127fd577f4e487b7100000000000000000000000000000000000000000000000000000000600052603260045260246000fd5b1a60f81b82828151811061283a577f4e487b7100000000000000000000000000000000000000000000000000000000600052603260045260246000fd5b60200101907effffffffffffffffffffffffffffffffffffffffffffffffffffffffffffff1916908160001a905350600485901c94508061287a90613719565b9050612798565b50600084146128c5576040517f08c379a00000000000000000000000000000000000000000000000000000000081526004016128bc906131ff565b60405180910390fd5b8091505092915050565b6128d98282612000565b5050565b60006128f06128eb846134c0565b61349b565b9050808382526020820190508285602086028201111561290f57600080fd5b60005b8581101561293f57816129258882612949565b845260208401935060208301925050600181019050612912565b5050509392505050565b60008135905061295881613bd8565b92915050565b60008151905061296d81613bd8565b92915050565b600082601f83011261298457600080fd5b81356129948482602086016128dd565b91505092915050565b6000815190506129ac81613bef565b92915050565b6000813590506129c181613c06565b92915050565b6000813590506129d681613c1d565b92915050565b6000815190506129eb81613c34565b92915050565b600081359050612a0081613c4b565b92915050565b600081519050612a1581613c4b565b92915050565b600081519050612a2a81613c62565b92915050565b600060208284031215612a4257600080fd5b6000612a5084828501612949565b91505092915050565b600060208284031215612a6b57600080fd5b6000612a798482850161295e565b91505092915050565b60008060408385031215612a9557600080fd5b6000612aa385828601612949565b9250506020612ab485828601612949565b9150509250929050565b600080600080600060a08688031215612ad657600080fd5b6000612ae488828901612949565b9550506020612af588828901612949565b9450506040612b0688828901612949565b9350506060612b1788828901612949565b9250506080612b2888828901612949565b9150509295509295909350565b60008060408385031215612b4857600080fd5b6000612b5685828601612949565b9250506020612b67858286016129f1565b9150509250929050565b600060208284031215612b8357600080fd5b600082013567ffffffffffffffff811115612b9d57600080fd5b612ba984828501612973565b91505092915050565b600060208284031215612bc457600080fd5b6000612bd28482850161299d565b91505092915050565b600060208284031215612bed57600080fd5b6000612bfb848285016129b2565b91505092915050565b60008060408385031215612c1757600080fd5b6000612c25858286016129b2565b9250506020612c3685828601612949565b9150509250929050565b600060208284031215612c5257600080fd5b6000612c60848285016129c7565b91505092915050565b600080600060608486031215612c7e57600080fd5b6000612c8c868287016129dc565b9350506020612c9d868287016129dc565b9250506040612cae86828701612a1b565b9150509250925092565b600060208284031215612cca57600080fd5b6000612cd8848285016129f1565b91505092915050565b600060208284031215612cf357600080fd5b6000612d0184828501612a06565b91505092915050565b612d138161363e565b82525050565b612d2281613650565b82525050565b612d318161365c565b82525050565b6000612d42826134ec565b612d4c8185613502565b9350612d5c8185602086016136e6565b80840191505092915050565b6000612d73826134f7565b612d7d818561350d565b9350612d8d8185602086016136e6565b612d968161384a565b840191505092915050565b6000612dac826134f7565b612db6818561351e565b9350612dc68185602086016136e6565b80840191505092915050565b6000612ddf60208361350d565b9150612dea8261385b565b602082019050919050565b6000612e02600d8361350d565b9150612e0d82613884565b602082019050919050565b6000612e2560098361350d565b9150612e30826138ad565b602082019050919050565b6000612e48600c8361350d565b9150612e53826138d6565b602082019050919050565b6000612e6b600c8361350d565b9150612e76826138ff565b602082019050919050565b6000612e8e601d8361350d565b9150612e9982613928565b602082019050919050565b6000612eb1600d8361350d565b9150612ebc82613951565b602082019050919050565b6000612ed460108361350d565b9150612edf8261397a565b602082019050919050565b6000612ef760198361350d565b9150612f02826139a3565b602082019050919050565b6000612f1a60178361350d565b9150612f25826139cc565b602082019050919050565b6000612f3d600e8361350d565b9150612f48826139f5565b602082019050919050565b6000612f60600a8361350d565b9150612f6b82613a1e565b602082019050919050565b6000612f8360238361350d565b9150612f8e82613a47565b604082019050919050565b6000612fa660178361351e565b9150612fb182613a96565b601782019050919050565b6000612fc960108361350d565b9150612fd482613abf565b602082019050919050565b6000612fec60248361350d565b9150612ff782613ae8565b604082019050919050565b600061300f601f8361350d565b915061301a82613b37565b602082019050919050565b600061303260118361351e565b915061303d82613b60565b601182019050919050565b6000613055602f8361350d565b915061306082613b89565b604082019050919050565b613074816136cc565b82525050565b60006130868284612d37565b915081905092915050565b600061309c82612f99565b91506130a88285612da1565b91506130b382613025565b91506130bf8284612da1565b91508190509392505050565b60006020820190506130e06000830184612d0a565b92915050565b600060c0820190506130fb6000830189612d0a565b6131086020830188612d0a565b6131156040830187612d0a565b6131226060830186612d0a565b61312f6080830185612d0a565b61313c60a0830184612d0a565b979650505050505050565b600060608201905061315c6000830186612d0a565b6131696020830185612d0a565b613176604083018461306b565b949350505050565b60006040820190506131936000830185612d0a565b6131a0602083018461306b565b9392505050565b60006020820190506131bc6000830184612d19565b92915050565b60006020820190506131d76000830184612d28565b92915050565b600060208201905081810360008301526131f78184612d68565b905092915050565b6000602082019050818103600083015261321881612dd2565b9050919050565b6000602082019050818103600083015261323881612df5565b9050919050565b6000602082019050818103600083015261325881612e18565b9050919050565b6000602082019050818103600083015261327881612e3b565b9050919050565b6000602082019050818103600083015261329881612e5e565b9050919050565b600060208201905081810360008301526132b881612e81565b9050919050565b600060208201905081810360008301526132d881612ea4565b9050919050565b600060208201905081810360008301526132f881612ec7565b9050919050565b6000602082019050818103600083015261331881612eea565b9050919050565b6000602082019050818103600083015261333881612f0d565b9050919050565b6000602082019050818103600083015261335881612f30565b9050919050565b6000602082019050818103600083015261337881612f53565b9050919050565b6000602082019050818103600083015261339881612f76565b9050919050565b600060208201905081810360008301526133b881612fbc565b9050919050565b600060208201905081810360008301526133d881612fdf565b9050919050565b600060208201905081810360008301526133f881613002565b9050919050565b6000602082019050818103600083015261341881613048565b9050919050565b6000602082019050613434600083018461306b565b92915050565b600060c08201905061344f600083018961306b565b61345c602083018861306b565b613469604083018761306b565b613476606083018661306b565b613483608083018561306b565b61349060a083018461306b565b979650505050505050565b60006134a56134b6565b90506134b18282613743565b919050565b6000604051905090565b600067ffffffffffffffff8211156134db576134da61381b565b5b602082029050602081019050919050565b600081519050919050565b600081519050919050565b600081905092915050565b600082825260208201905092915050565b600081905092915050565b6000613534826136cc565b915061353f836136cc565b9250827fffffffffffffffffffffffffffffffffffffffffffffffffffffffffffffffff03821115613574576135736137bd565b5b828201905092915050565b600061358a826136cc565b9150613595836136cc565b9250826135a5576135a46137ec565b5b828204905092915050565b60006135bb826136cc565b91506135c6836136cc565b9250817fffffffffffffffffffffffffffffffffffffffffffffffffffffffffffffffff04831182151516156135ff576135fe6137bd565b5b828202905092915050565b6000613615826136cc565b9150613620836136cc565b925082821015613633576136326137bd565b5b828203905092915050565b6000613649826136ac565b9050919050565b60008115159050919050565b6000819050919050565b60007fffffffff0000000000000000000000000000000000000000000000000000000082169050919050565b60006dffffffffffffffffffffffffffff82169050919050565b600073ffffffffffffffffffffffffffffffffffffffff82169050919050565b6000819050919050565b600063ffffffff82169050919050565b60005b838110156137045780820151818401526020810190506136e9565b83811115613713576000848401525b50505050565b6000613724826136cc565b91506000821415613738576137376137bd565b5b600182039050919050565b61374c8261384a565b810181811067ffffffffffffffff8211171561376b5761376a61381b565b5b80604052505050565b600061377f826136cc565b91507fffffffffffffffffffffffffffffffffffffffffffffffffffffffffffffffff8214156137b2576137b16137bd565b5b600182019050919050565b7f4e487b7100000000000000000000000000000000000000000000000000000000600052601160045260246000fd5b7f4e487b7100000000000000000000000000000000000000000000000000000000600052601260045260246000fd5b7f4e487b7100000000000000000000000000000000000000000000000000000000600052604160045260246000fd5b6000601f19601f8301169050919050565b7f537472696e67733a20686578206c656e67746820696e73756666696369656e74600082015250565b7f686173206e6f7420737461727400000000000000000000000000000000000000600082015250565b7f6e6f207374616b65640000000000000000000000000000000000000000000000600082015250565b7f6f6e6c79207374616b696e670000000000000000000000000000000000000000600082015250565b7f6f6e6c79206d616e616765720000000000000000000000000000000000000000600082015250565b7f5a65726f2061646472657373206973206e6f7420737570706f72746564000000600082015250565b7f636865636b206164647265737300000000000000000000000000000000000000600082015250565b7f5468697320697320616e206f776e657200000000000000000000000000000000600082015250565b7f546865206164647265737320776173206e6f7420666f756e6400000000000000600082015250565b7f5f75736572732063616e206e6f7420626520656d707479000000000000000000600082015250565b7f6561726e6564206c617267657374000000000000000000000000000000000000600082015250565b7f6f6e6c79206f776e657200000000000000000000000000000000000000000000600082015250565b7f5472616e7366657248656c7065723a204554485f5452414e534645525f46414960008201527f4c45440000000000000000000000000000000000000000000000000000000000602082015250565b7f416363657373436f6e74726f6c3a206163636f756e7420000000000000000000600082015250565b7f68616420616c726561647920696e697400000000000000000000000000000000600082015250565b7f5472616e7366657248656c7065723a205452414e534645525f46524f4d5f464160008201527f494c454400000000000000000000000000000000000000000000000000000000602082015250565b7f5265656e7472616e637947756172643a207265656e7472616e742063616c6c00600082015250565b7f206973206d697373696e6720726f6c6520000000000000000000000000000000600082015250565b7f416363657373436f6e74726f6c3a2063616e206f6e6c792072656e6f756e636560008201527f20726f6c657320666f722073656c660000000000000000000000000000000000602082015250565b613be18161363e565b8114613bec57600080fd5b50565b613bf881613650565b8114613c0357600080fd5b50565b613c0f8161365c565b8114613c1a57600080fd5b50565b613c2681613666565b8114613c3157600080fd5b50565b613c3d81613692565b8114613c4857600080fd5b50565b613c54816136cc565b8114613c5f57600080fd5b50565b613c6b816136d6565b8114613c7657600080fd5b5056fea2646970667358221220739bf890b9f0819ba9b052e62ae4f7cbe7f4ddb6b5291709373e6703933376a164736f6c63430008020033",
  "linkReferences": {},
  "deployedLinkReferences": {}
}